{
  "_format": "hh-sol-artifact-1",
  "contractName": "Transactions",
  "sourceName": "contracts/Transactions.sol",
  "abi": [
    {
      "anonymous": false,
      "inputs": [
        {
          "indexed": false,
          "internalType": "address",
          "name": "from",
          "type": "address"
        },
        {
          "indexed": false,
          "internalType": "address",
          "name": "receiver",
          "type": "address"
        },
        {
          "indexed": false,
          "internalType": "uint256",
          "name": "amount",
          "type": "uint256"
        },
        {
          "indexed": false,
          "internalType": "string",
          "name": "message",
          "type": "string"
        },
        {
          "indexed": false,
          "internalType": "uint256",
          "name": "timestamp",
          "type": "uint256"
        },
        {
          "indexed": false,
          "internalType": "string",
          "name": "keyword",
          "type": "string"
        }
      ],
      "name": "Transfer",
      "type": "event"
    },
    {
      "inputs": [
        {
          "internalType": "address payable",
          "name": "receiver",
          "type": "address"
        },
        {
          "internalType": "uint256",
          "name": "amount",
          "type": "uint256"
        },
        {
          "internalType": "string",
          "name": "message",
          "type": "string"
        },
        {
          "internalType": "string",
          "name": "keyword",
          "type": "string"
        }
      ],
      "name": "addToBlockchain",
      "outputs": [],
      "stateMutability": "nonpayable",
      "type": "function"
    },
    {
      "inputs": [],
      "name": "getAllTransactions",
      "outputs": [
        {
          "components": [
            {
              "internalType": "address",
              "name": "sender",
              "type": "address"
            },
            {
              "internalType": "address",
              "name": "receiver",
              "type": "address"
            },
            {
              "internalType": "uint256",
              "name": "amount",
              "type": "uint256"
            },
            {
              "internalType": "string",
              "name": "message",
              "type": "string"
            },
            {
              "internalType": "uint256",
              "name": "timestamp",
              "type": "uint256"
            },
            {
              "internalType": "string",
              "name": "keyword",
              "type": "string"
            }
          ],
          "internalType": "struct Transactions.TransferStruct[]",
          "name": "",
          "type": "tuple[]"
        }
      ],
      "stateMutability": "view",
      "type": "function"
    },
    {
      "inputs": [],
      "name": "getTransactionCount",
      "outputs": [
        {
          "internalType": "uint256",
          "name": "",
          "type": "uint256"
        }
      ],
      "stateMutability": "view",
      "type": "function"
    },
    {
      "inputs": [],
      "name": "totalTransactions",
      "outputs": [
        {
          "internalType": "uint256",
          "name": "",
          "type": "uint256"
        }
      ],
      "stateMutability": "view",
      "type": "function"
    }
  ],
  "bytecode": "0x608060405234801561001057600080fd5b50610c3c806100206000396000f3fe608060405234801561001057600080fd5b506004361061004c5760003560e01c806327506f53146100515780632e7700f01461006f578063b9a600381461008d578063cc2d7ead146100ab575b600080fd5b6100596100c7565b60405161006691906108e8565b60405180910390f35b61007761030a565b604051610084919061090a565b60405180910390f35b610095610313565b6040516100a2919061090a565b60405180910390f35b6100c560048036038101906100c09190610610565b610319565b005b60606001805480602002602001604051908101604052809291908181526020016000905b8282101561030157838290600052602060002090600602016040518060c00160405290816000820160009054906101000a900473ffffffffffffffffffffffffffffffffffffffff1673ffffffffffffffffffffffffffffffffffffffff1673ffffffffffffffffffffffffffffffffffffffff1681526020016001820160009054906101000a900473ffffffffffffffffffffffffffffffffffffffff1673ffffffffffffffffffffffffffffffffffffffff1673ffffffffffffffffffffffffffffffffffffffff168152602001600282015481526020016003820180546101d490610b08565b80601f016020809104026020016040519081016040528092919081815260200182805461020090610b08565b801561024d5780601f106102225761010080835404028352916020019161024d565b820191906000526020600020905b81548152906001019060200180831161023057829003601f168201915b505050505081526020016004820154815260200160058201805461027090610b08565b80601f016020809104026020016040519081016040528092919081815260200182805461029c90610b08565b80156102e95780601f106102be576101008083540402835291602001916102e9565b820191906000526020600020905b8154815290600101906020018083116102cc57829003601f168201915b505050505081525050815260200190600101906100eb565b50505050905090565b60008054905090565b60005481565b600160008082825461032b91906109ec565b9250508190555060016040518060c001604052803373ffffffffffffffffffffffffffffffffffffffff1681526020018673ffffffffffffffffffffffffffffffffffffffff16815260200185815260200184815260200142815260200183815250908060018154018082558091505060019003906000526020600020906006020160009091909190915060008201518160000160006101000a81548173ffffffffffffffffffffffffffffffffffffffff021916908373ffffffffffffffffffffffffffffffffffffffff16021790555060208201518160010160006101000a81548173ffffffffffffffffffffffffffffffffffffffff021916908373ffffffffffffffffffffffffffffffffffffffff16021790555060408201518160020155606082015181600301908051906020019061046a9291906104db565b506080820151816004015560a08201518160050190805190602001906104919291906104db565b5050507f416cfa4330a4565f45c2fd2dd4826a83a37443aba2ce6f79477c7355afac35fa3385858542866040516104cd96959493929190610879565b60405180910390a150505050565b8280546104e790610b08565b90600052602060002090601f0160209004810192826105095760008555610550565b82601f1061052257805160ff1916838001178555610550565b82800160010185558215610550579182015b8281111561054f578251825591602001919060010190610534565b5b50905061055d9190610561565b5090565b5b8082111561057a576000816000905550600101610562565b5090565b600061059161058c84610956565b610925565b9050828152602081018484840111156105a957600080fd5b6105b4848285610ac6565b509392505050565b6000813590506105cb81610bd8565b92915050565b600082601f8301126105e257600080fd5b81356105f284826020860161057e565b91505092915050565b60008135905061060a81610bef565b92915050565b6000806000806080858703121561062657600080fd5b6000610634878288016105bc565b9450506020610645878288016105fb565b935050604085013567ffffffffffffffff81111561066257600080fd5b61066e878288016105d1565b925050606085013567ffffffffffffffff81111561068b57600080fd5b610697878288016105d1565b91505092959194509250565b60006106af83836107cb565b905092915050565b6106c081610a90565b82525050565b6106cf81610a42565b82525050565b6106de81610a42565b82525050565b60006106ef82610996565b6106f981856109b9565b93508360208202850161070b85610986565b8060005b85811015610747578484038952815161072885826106a3565b9450610733836109ac565b925060208a0199505060018101905061070f565b50829750879550505050505092915050565b6000610764826109a1565b61076e81856109ca565b935061077e818560208601610ad5565b61078781610bc7565b840191505092915050565b600061079d826109a1565b6107a781856109db565b93506107b7818560208601610ad5565b6107c081610bc7565b840191505092915050565b600060c0830160008301516107e360008601826106c6565b5060208301516107f660208601826106c6565b506040830151610809604086018261085b565b50606083015184820360608601526108218282610759565b9150506080830151610836608086018261085b565b5060a083015184820360a086015261084e8282610759565b9150508091505092915050565b61086481610a86565b82525050565b61087381610a86565b82525050565b600060c08201905061088e60008301896106d5565b61089b60208301886106b7565b6108a8604083018761086a565b81810360608301526108ba8186610792565b90506108c9608083018561086a565b81810360a08301526108db8184610792565b9050979650505050505050565b6000602082019050818103600083015261090281846106e4565b905092915050565b600060208201905061091f600083018461086a565b92915050565b6000604051905081810181811067ffffffffffffffff8211171561094c5761094b610b98565b5b8060405250919050565b600067ffffffffffffffff82111561097157610970610b98565b5b601f19601f8301169050602081019050919050565b6000819050602082019050919050565b600081519050919050565b600081519050919050565b6000602082019050919050565b600082825260208201905092915050565b600082825260208201905092915050565b600082825260208201905092915050565b60006109f782610a86565b9150610a0283610a86565b9250827fffffffffffffffffffffffffffffffffffffffffffffffffffffffffffffffff03821115610a3757610a36610b3a565b5b828201905092915050565b6000610a4d82610a66565b9050919050565b6000610a5f82610a66565b9050919050565b600073ffffffffffffffffffffffffffffffffffffffff82169050919050565b6000819050919050565b6000610a9b82610aa2565b9050919050565b6000610aad82610ab4565b9050919050565b6000610abf82610a66565b9050919050565b82818337600083830152505050565b60005b83811015610af3578082015181840152602081019050610ad8565b83811115610b02576000848401525b50505050565b60006002820490506001821680610b2057607f821691505b60208210811415610b3457610b33610b69565b5b50919050565b7f4e487b7100000000000000000000000000000000000000000000000000000000600052601160045260246000fd5b7f4e487b7100000000000000000000000000000000000000000000000000000000600052602260045260246000fd5b7f4e487b7100000000000000000000000000000000000000000000000000000000600052604160045260246000fd5b6000601f19601f8301169050919050565b610be181610a54565b8114610bec57600080fd5b50565b610bf881610a86565b8114610c0357600080fd5b5056fea264697066735822122025d30a7c3a9072a9775b1b9a740d143d2bb80fe78396f5ada592e57506be0c0e64736f6c63430008000033",
  "linkReferences": {},
  "deployedLinkReferences": {}
}